{
	"Simple.sol": {
		"Simple": {
			"abi": [
				{
					"inputs": [
						{
							"internalType": "uint256",
							"name": "_Timestamp",
							"type": "uint256"
						},
						{
							"internalType": "string",
							"name": "_Event",
							"type": "string"
						}
					],
					"name": "CreateEvent",
					"outputs": [],
					"stateMutability": "nonpayable",
					"type": "function"
				}
			],
			"devdoc": {
				"kind": "dev",
				"methods": {},
				"version": 1
			},
			"evm": {
				"assembly": "    /* \"Simple.sol\":62:374  contract Simple {... */\n  mstore(0x40, 0x80)\n  callvalue\n  dup1\n  iszero\n  tag_1\n  jumpi\n  0x00\n  dup1\n  revert\ntag_1:\n  pop\n  dataSize(sub_0)\n  dup1\n  dataOffset(sub_0)\n  0x00\n  codecopy\n  0x00\n  return\nstop\n\nsub_0: assembly {\n        /* \"Simple.sol\":62:374  contract Simple {... */\n      mstore(0x40, 0x80)\n      callvalue\n      dup1\n      iszero\n      tag_1\n      jumpi\n      0x00\n      dup1\n      revert\n    tag_1:\n      pop\n      jumpi(tag_2, lt(calldatasize, 0x04))\n      shr(0xe0, calldataload(0x00))\n      dup1\n      0x8b7268e8\n      eq\n      tag_3\n      jumpi\n    tag_2:\n      0x00\n      dup1\n      revert\n        /* \"Simple.sol\":213:371  function CreateEvent (uint256 _Timestamp, string memory _Event) public {... */\n    tag_3:\n      tag_4\n      0x04\n      dup1\n      calldatasize\n      sub\n      dup2\n      add\n      swap1\n      tag_5\n      swap2\n      swap1\n      tag_6\n      jump\t// in\n    tag_5:\n      tag_7\n      jump\t// in\n    tag_4:\n      stop\n    tag_7:\n        /* \"Simple.sol\":308:314  _Event */\n      dup1\n        /* \"Simple.sol\":287:292  MyMap */\n      0x01\n        /* \"Simple.sol\":287:305  MyMap [_Timestamp] */\n      0x00\n        /* \"Simple.sol\":294:304  _Timestamp */\n      dup5\n        /* \"Simple.sol\":287:305  MyMap [_Timestamp] */\n      dup2\n      mstore\n      0x20\n      add\n      swap1\n      dup2\n      mstore\n      0x20\n      add\n      0x00\n      keccak256\n        /* \"Simple.sol\":287:314  MyMap [_Timestamp] = _Event */\n      swap1\n      dup2\n      tag_9\n      swap2\n      swap1\n      tag_10\n      jump\t// in\n    tag_9:\n      pop\n        /* \"Simple.sol\":317:329  MyEventsData */\n      0x00\n        /* \"Simple.sol\":336:366  EventsData(_Timestamp, _Event) */\n      mload(0x40)\n      dup1\n      0x40\n      add\n      0x40\n      mstore\n      dup1\n        /* \"Simple.sol\":347:357  _Timestamp */\n      dup5\n        /* \"Simple.sol\":336:366  EventsData(_Timestamp, _Event) */\n      dup2\n      mstore\n      0x20\n      add\n        /* \"Simple.sol\":359:365  _Event */\n      dup4\n        /* \"Simple.sol\":336:366  EventsData(_Timestamp, _Event) */\n      dup2\n      mstore\n      pop\n        /* \"Simple.sol\":317:367  MyEventsData.push (EventsData(_Timestamp, _Event)) */\n      swap1\n      dup1\n      0x01\n      dup2\n      sload\n      add\n      dup1\n      dup3\n      sstore\n      dup1\n      swap2\n      pop\n      pop\n      0x01\n      swap1\n      sub\n      swap1\n      0x00\n      mstore\n      keccak256(0x00, 0x20)\n      swap1\n      0x02\n      mul\n      add\n      0x00\n      swap1\n      swap2\n      swap1\n      swap2\n      swap1\n      swap2\n      pop\n      0x00\n      dup3\n      add\n      mload\n      dup2\n      0x00\n      add\n      sstore\n      0x20\n      dup3\n      add\n      mload\n      dup2\n      0x01\n      add\n      swap1\n      dup2\n      tag_12\n      swap2\n      swap1\n      tag_10\n      jump\t// in\n    tag_12:\n      pop\n      pop\n      pop\n        /* \"Simple.sol\":213:371  function CreateEvent (uint256 _Timestamp, string memory _Event) public {... */\n      pop\n      pop\n      jump\t// out\n        /* \"#utility.yul\":7:82   */\n    tag_13:\n        /* \"#utility.yul\":40:46   */\n      0x00\n        /* \"#utility.yul\":73:75   */\n      0x40\n        /* \"#utility.yul\":67:76   */\n      mload\n        /* \"#utility.yul\":57:76   */\n      swap1\n      pop\n        /* \"#utility.yul\":7:82   */\n      swap1\n      jump\t// out\n        /* \"#utility.yul\":88:205   */\n    tag_14:\n        /* \"#utility.yul\":197:198   */\n      0x00\n        /* \"#utility.yul\":194:195   */\n      dup1\n        /* \"#utility.yul\":187:199   */\n      revert\n        /* \"#utility.yul\":211:328   */\n    tag_15:\n        /* \"#utility.yul\":320:321   */\n      0x00\n        /* \"#utility.yul\":317:318   */\n      dup1\n        /* \"#utility.yul\":310:322   */\n      revert\n        /* \"#utility.yul\":334:411   */\n    tag_16:\n        /* \"#utility.yul\":371:378   */\n      0x00\n        /* \"#utility.yul\":400:405   */\n      dup2\n        /* \"#utility.yul\":389:405   */\n      swap1\n      pop\n        /* \"#utility.yul\":334:411   */\n      swap2\n      swap1\n      pop\n      jump\t// out\n        /* \"#utility.yul\":417:539   */\n    tag_17:\n        /* \"#utility.yul\":490:514   */\n      tag_53\n        /* \"#utility.yul\":508:513   */\n      dup2\n        /* \"#utility.yul\":490:514   */\n      tag_16\n      jump\t// in\n    tag_53:\n        /* \"#utility.yul\":483:488   */\n      dup2\n        /* \"#utility.yul\":480:515   */\n      eq\n        /* \"#utility.yul\":470:533   */\n      tag_54\n      jumpi\n        /* \"#utility.yul\":529:530   */\n      0x00\n        /* \"#utility.yul\":526:527   */\n      dup1\n        /* \"#utility.yul\":519:531   */\n      revert\n        /* \"#utility.yul\":470:533   */\n    tag_54:\n        /* \"#utility.yul\":417:539   */\n      pop\n      jump\t// out\n        /* \"#utility.yul\":545:684   */\n    tag_18:\n        /* \"#utility.yul\":591:596   */\n      0x00\n        /* \"#utility.yul\":629:635   */\n      dup2\n        /* \"#utility.yul\":616:636   */\n      calldataload\n        /* \"#utility.yul\":607:636   */\n      swap1\n      pop\n        /* \"#utility.yul\":645:678   */\n      tag_56\n        /* \"#utility.yul\":672:677   */\n      dup2\n        /* \"#utility.yul\":645:678   */\n      tag_17\n      jump\t// in\n    tag_56:\n        /* \"#utility.yul\":545:684   */\n      swap3\n      swap2\n      pop\n      pop\n      jump\t// out\n        /* \"#utility.yul\":690:807   */\n    tag_19:\n        /* \"#utility.yul\":799:800   */\n      0x00\n        /* \"#utility.yul\":796:797   */\n      dup1\n        /* \"#utility.yul\":789:801   */\n      revert\n        /* \"#utility.yul\":813:930   */\n    tag_20:\n        /* \"#utility.yul\":922:923   */\n      0x00\n        /* \"#utility.yul\":919:920   */\n      dup1\n        /* \"#utility.yul\":912:924   */\n      revert\n        /* \"#utility.yul\":936:1038   */\n    tag_21:\n        /* \"#utility.yul\":977:983   */\n      0x00\n        /* \"#utility.yul\":1028:1030   */\n      0x1f\n        /* \"#utility.yul\":1024:1031   */\n      not\n        /* \"#utility.yul\":1019:1021   */\n      0x1f\n        /* \"#utility.yul\":1012:1017   */\n      dup4\n        /* \"#utility.yul\":1008:1022   */\n      add\n        /* \"#utility.yul\":1004:1032   */\n      and\n        /* \"#utility.yul\":994:1032   */\n      swap1\n      pop\n        /* \"#utility.yul\":936:1038   */\n      swap2\n      swap1\n      pop\n      jump\t// out\n        /* \"#utility.yul\":1044:1224   */\n    tag_22:\n        /* \"#utility.yul\":1092:1169   */\n      0x4e487b7100000000000000000000000000000000000000000000000000000000\n        /* \"#utility.yul\":1089:1090   */\n      0x00\n        /* \"#utility.yul\":1082:1170   */\n      mstore\n        /* \"#utility.yul\":1189:1193   */\n      0x41\n        /* \"#utility.yul\":1186:1187   */\n      0x04\n        /* \"#utility.yul\":1179:1194   */\n      mstore\n        /* \"#utility.yul\":1213:1217   */\n      0x24\n        /* \"#utility.yul\":1210:1211   */\n      0x00\n        /* \"#utility.yul\":1203:1218   */\n      revert\n        /* \"#utility.yul\":1230:1511   */\n    tag_23:\n        /* \"#utility.yul\":1313:1340   */\n      tag_62\n        /* \"#utility.yul\":1335:1339   */\n      dup3\n        /* \"#utility.yul\":1313:1340   */\n      tag_21\n      jump\t// in\n    tag_62:\n        /* \"#utility.yul\":1305:1311   */\n      dup2\n        /* \"#utility.yul\":1301:1341   */\n      add\n        /* \"#utility.yul\":1443:1449   */\n      dup2\n        /* \"#utility.yul\":1431:1441   */\n      dup2\n        /* \"#utility.yul\":1428:1450   */\n      lt\n        /* \"#utility.yul\":1407:1425   */\n      0xffffffffffffffff\n        /* \"#utility.yul\":1395:1405   */\n      dup3\n        /* \"#utility.yul\":1392:1426   */\n      gt\n        /* \"#utility.yul\":1389:1451   */\n      or\n        /* \"#utility.yul\":1386:1474   */\n      iszero\n      tag_63\n      jumpi\n        /* \"#utility.yul\":1454:1472   */\n      tag_64\n      tag_22\n      jump\t// in\n    tag_64:\n        /* \"#utility.yul\":1386:1474   */\n    tag_63:\n        /* \"#utility.yul\":1494:1504   */\n      dup1\n        /* \"#utility.yul\":1490:1492   */\n      0x40\n        /* \"#utility.yul\":1483:1505   */\n      mstore\n        /* \"#utility.yul\":1273:1511   */\n      pop\n        /* \"#utility.yul\":1230:1511   */\n      pop\n      pop\n      jump\t// out\n        /* \"#utility.yul\":1517:1646   */\n    tag_24:\n        /* \"#utility.yul\":1551:1557   */\n      0x00\n        /* \"#utility.yul\":1578:1598   */\n      tag_66\n      tag_13\n      jump\t// in\n    tag_66:\n        /* \"#utility.yul\":1568:1598   */\n      swap1\n      pop\n        /* \"#utility.yul\":1607:1640   */\n      tag_67\n        /* \"#utility.yul\":1635:1639   */\n      dup3\n        /* \"#utility.yul\":1627:1633   */\n      dup3\n        /* \"#utility.yul\":1607:1640   */\n      tag_23\n      jump\t// in\n    tag_67:\n        /* \"#utility.yul\":1517:1646   */\n      swap2\n      swap1\n      pop\n      jump\t// out\n        /* \"#utility.yul\":1652:1960   */\n    tag_25:\n        /* \"#utility.yul\":1714:1718   */\n      0x00\n        /* \"#utility.yul\":1804:1822   */\n      0xffffffffffffffff\n        /* \"#utility.yul\":1796:1802   */\n      dup3\n        /* \"#utility.yul\":1793:1823   */\n      gt\n        /* \"#utility.yul\":1790:1846   */\n      iszero\n      tag_69\n      jumpi\n        /* \"#utility.yul\":1826:1844   */\n      tag_70\n      tag_22\n      jump\t// in\n    tag_70:\n        /* \"#utility.yul\":1790:1846   */\n    tag_69:\n        /* \"#utility.yul\":1864:1893   */\n      tag_71\n        /* \"#utility.yul\":1886:1892   */\n      dup3\n        /* \"#utility.yul\":1864:1893   */\n      tag_21\n      jump\t// in\n    tag_71:\n        /* \"#utility.yul\":1856:1893   */\n      swap1\n      pop\n        /* \"#utility.yul\":1948:1952   */\n      0x20\n        /* \"#utility.yul\":1942:1946   */\n      dup2\n        /* \"#utility.yul\":1938:1953   */\n      add\n        /* \"#utility.yul\":1930:1953   */\n      swap1\n      pop\n        /* \"#utility.yul\":1652:1960   */\n      swap2\n      swap1\n      pop\n      jump\t// out\n        /* \"#utility.yul\":1966:2112   */\n    tag_26:\n        /* \"#utility.yul\":2063:2069   */\n      dup3\n        /* \"#utility.yul\":2058:2061   */\n      dup2\n        /* \"#utility.yul\":2053:2056   */\n      dup4\n        /* \"#utility.yul\":2040:2070   */\n      calldatacopy\n        /* \"#utility.yul\":2104:2105   */\n      0x00\n        /* \"#utility.yul\":2095:2101   */\n      dup4\n        /* \"#utility.yul\":2090:2093   */\n      dup4\n        /* \"#utility.yul\":2086:2102   */\n      add\n        /* \"#utility.yul\":2079:2106   */\n      mstore\n        /* \"#utility.yul\":1966:2112   */\n      pop\n      pop\n      pop\n      jump\t// out\n        /* \"#utility.yul\":2118:2543   */\n    tag_27:\n        /* \"#utility.yul\":2196:2201   */\n      0x00\n        /* \"#utility.yul\":2221:2287   */\n      tag_74\n        /* \"#utility.yul\":2237:2286   */\n      tag_75\n        /* \"#utility.yul\":2279:2285   */\n      dup5\n        /* \"#utility.yul\":2237:2286   */\n      tag_25\n      jump\t// in\n    tag_75:\n        /* \"#utility.yul\":2221:2287   */\n      tag_24\n      jump\t// in\n    tag_74:\n        /* \"#utility.yul\":2212:2287   */\n      swap1\n      pop\n        /* \"#utility.yul\":2310:2316   */\n      dup3\n        /* \"#utility.yul\":2303:2308   */\n      dup2\n        /* \"#utility.yul\":2296:2317   */\n      mstore\n        /* \"#utility.yul\":2348:2352   */\n      0x20\n        /* \"#utility.yul\":2341:2346   */\n      dup2\n        /* \"#utility.yul\":2337:2353   */\n      add\n        /* \"#utility.yul\":2386:2389   */\n      dup5\n        /* \"#utility.yul\":2377:2383   */\n      dup5\n        /* \"#utility.yul\":2372:2375   */\n      dup5\n        /* \"#utility.yul\":2368:2384   */\n      add\n        /* \"#utility.yul\":2365:2390   */\n      gt\n        /* \"#utility.yul\":2362:2474   */\n      iszero\n      tag_76\n      jumpi\n        /* \"#utility.yul\":2393:2472   */\n      tag_77\n      tag_20\n      jump\t// in\n    tag_77:\n        /* \"#utility.yul\":2362:2474   */\n    tag_76:\n        /* \"#utility.yul\":2483:2537   */\n      tag_78\n        /* \"#utility.yul\":2530:2536   */\n      dup5\n        /* \"#utility.yul\":2525:2528   */\n      dup3\n        /* \"#utility.yul\":2520:2523   */\n      dup6\n        /* \"#utility.yul\":2483:2537   */\n      tag_26\n      jump\t// in\n    tag_78:\n        /* \"#utility.yul\":2202:2543   */\n      pop\n        /* \"#utility.yul\":2118:2543   */\n      swap4\n      swap3\n      pop\n      pop\n      pop\n      jump\t// out\n        /* \"#utility.yul\":2563:2903   */\n    tag_28:\n        /* \"#utility.yul\":2619:2624   */\n      0x00\n        /* \"#utility.yul\":2668:2671   */\n      dup3\n        /* \"#utility.yul\":2661:2665   */\n      0x1f\n        /* \"#utility.yul\":2653:2659   */\n      dup4\n        /* \"#utility.yul\":2649:2666   */\n      add\n        /* \"#utility.yul\":2645:2672   */\n      slt\n        /* \"#utility.yul\":2635:2757   */\n      tag_80\n      jumpi\n        /* \"#utility.yul\":2676:2755   */\n      tag_81\n      tag_19\n      jump\t// in\n    tag_81:\n        /* \"#utility.yul\":2635:2757   */\n    tag_80:\n        /* \"#utility.yul\":2793:2799   */\n      dup2\n        /* \"#utility.yul\":2780:2800   */\n      calldataload\n        /* \"#utility.yul\":2818:2897   */\n      tag_82\n        /* \"#utility.yul\":2893:2896   */\n      dup5\n        /* \"#utility.yul\":2885:2891   */\n      dup3\n        /* \"#utility.yul\":2878:2882   */\n      0x20\n        /* \"#utility.yul\":2870:2876   */\n      dup7\n        /* \"#utility.yul\":2866:2883   */\n      add\n        /* \"#utility.yul\":2818:2897   */\n      tag_27\n      jump\t// in\n    tag_82:\n        /* \"#utility.yul\":2809:2897   */\n      swap2\n      pop\n        /* \"#utility.yul\":2625:2903   */\n      pop\n        /* \"#utility.yul\":2563:2903   */\n      swap3\n      swap2\n      pop\n      pop\n      jump\t// out\n        /* \"#utility.yul\":2909:3563   */\n    tag_6:\n        /* \"#utility.yul\":2987:2993   */\n      0x00\n        /* \"#utility.yul\":2995:3001   */\n      dup1\n        /* \"#utility.yul\":3044:3046   */\n      0x40\n        /* \"#utility.yul\":3032:3041   */\n      dup4\n        /* \"#utility.yul\":3023:3030   */\n      dup6\n        /* \"#utility.yul\":3019:3042   */\n      sub\n        /* \"#utility.yul\":3015:3047   */\n      slt\n        /* \"#utility.yul\":3012:3131   */\n      iszero\n      tag_84\n      jumpi\n        /* \"#utility.yul\":3050:3129   */\n      tag_85\n      tag_14\n      jump\t// in\n    tag_85:\n        /* \"#utility.yul\":3012:3131   */\n    tag_84:\n        /* \"#utility.yul\":3170:3171   */\n      0x00\n        /* \"#utility.yul\":3195:3248   */\n      tag_86\n        /* \"#utility.yul\":3240:3247   */\n      dup6\n        /* \"#utility.yul\":3231:3237   */\n      dup3\n        /* \"#utility.yul\":3220:3229   */\n      dup7\n        /* \"#utility.yul\":3216:3238   */\n      add\n        /* \"#utility.yul\":3195:3248   */\n      tag_18\n      jump\t// in\n    tag_86:\n        /* \"#utility.yul\":3185:3248   */\n      swap3\n      pop\n        /* \"#utility.yul\":3141:3258   */\n      pop\n        /* \"#utility.yul\":3325:3327   */\n      0x20\n        /* \"#utility.yul\":3314:3323   */\n      dup4\n        /* \"#utility.yul\":3310:3328   */\n      add\n        /* \"#utility.yul\":3297:3329   */\n      calldataload\n        /* \"#utility.yul\":3356:3374   */\n      0xffffffffffffffff\n        /* \"#utility.yul\":3348:3354   */\n      dup2\n        /* \"#utility.yul\":3345:3375   */\n      gt\n        /* \"#utility.yul\":3342:3459   */\n      iszero\n      tag_87\n      jumpi\n        /* \"#utility.yul\":3378:3457   */\n      tag_88\n      tag_15\n      jump\t// in\n    tag_88:\n        /* \"#utility.yul\":3342:3459   */\n    tag_87:\n        /* \"#utility.yul\":3483:3546   */\n      tag_89\n        /* \"#utility.yul\":3538:3545   */\n      dup6\n        /* \"#utility.yul\":3529:3535   */\n      dup3\n        /* \"#utility.yul\":3518:3527   */\n      dup7\n        /* \"#utility.yul\":3514:3536   */\n      add\n        /* \"#utility.yul\":3483:3546   */\n      tag_28\n      jump\t// in\n    tag_89:\n        /* \"#utility.yul\":3473:3546   */\n      swap2\n      pop\n        /* \"#utility.yul\":3268:3556   */\n      pop\n        /* \"#utility.yul\":2909:3563   */\n      swap3\n      pop\n      swap3\n      swap1\n      pop\n      jump\t// out\n        /* \"#utility.yul\":3569:3668   */\n    tag_29:\n        /* \"#utility.yul\":3621:3627   */\n      0x00\n        /* \"#utility.yul\":3655:3660   */\n      dup2\n        /* \"#utility.yul\":3649:3661   */\n      mload\n        /* \"#utility.yul\":3639:3661   */\n      swap1\n      pop\n        /* \"#utility.yul\":3569:3668   */\n      swap2\n      swap1\n      pop\n      jump\t// out\n        /* \"#utility.yul\":3674:3854   */\n    tag_30:\n        /* \"#utility.yul\":3722:3799   */\n      0x4e487b7100000000000000000000000000000000000000000000000000000000\n        /* \"#utility.yul\":3719:3720   */\n      0x00\n        /* \"#utility.yul\":3712:3800   */\n      mstore\n        /* \"#utility.yul\":3819:3823   */\n      0x22\n        /* \"#utility.yul\":3816:3817   */\n      0x04\n        /* \"#utility.yul\":3809:3824   */\n      mstore\n        /* \"#utility.yul\":3843:3847   */\n      0x24\n        /* \"#utility.yul\":3840:3841   */\n      0x00\n        /* \"#utility.yul\":3833:3848   */\n      revert\n        /* \"#utility.yul\":3860:4180   */\n    tag_31:\n        /* \"#utility.yul\":3904:3910   */\n      0x00\n        /* \"#utility.yul\":3941:3942   */\n      0x02\n        /* \"#utility.yul\":3935:3939   */\n      dup3\n        /* \"#utility.yul\":3931:3943   */\n      div\n        /* \"#utility.yul\":3921:3943   */\n      swap1\n      pop\n        /* \"#utility.yul\":3988:3989   */\n      0x01\n        /* \"#utility.yul\":3982:3986   */\n      dup3\n        /* \"#utility.yul\":3978:3990   */\n      and\n        /* \"#utility.yul\":4009:4027   */\n      dup1\n        /* \"#utility.yul\":3999:4080   */\n      tag_93\n      jumpi\n        /* \"#utility.yul\":4065:4069   */\n      0x7f\n        /* \"#utility.yul\":4057:4063   */\n      dup3\n        /* \"#utility.yul\":4053:4070   */\n      and\n        /* \"#utility.yul\":4043:4070   */\n      swap2\n      pop\n        /* \"#utility.yul\":3999:4080   */\n    tag_93:\n        /* \"#utility.yul\":4127:4129   */\n      0x20\n        /* \"#utility.yul\":4119:4125   */\n      dup3\n        /* \"#utility.yul\":4116:4130   */\n      lt\n        /* \"#utility.yul\":4096:4114   */\n      dup2\n        /* \"#utility.yul\":4093:4131   */\n      sub\n        /* \"#utility.yul\":4090:4174   */\n      tag_94\n      jumpi\n        /* \"#utility.yul\":4146:4164   */\n      tag_95\n      tag_30\n      jump\t// in\n    tag_95:\n        /* \"#utility.yul\":4090:4174   */\n    tag_94:\n        /* \"#utility.yul\":3911:4180   */\n      pop\n        /* \"#utility.yul\":3860:4180   */\n      swap2\n      swap1\n      pop\n      jump\t// out\n        /* \"#utility.yul\":4186:4327   */\n    tag_32:\n        /* \"#utility.yul\":4235:4239   */\n      0x00\n        /* \"#utility.yul\":4258:4261   */\n      dup2\n        /* \"#utility.yul\":4250:4261   */\n      swap1\n      pop\n        /* \"#utility.yul\":4281:4284   */\n      dup2\n        /* \"#utility.yul\":4278:4279   */\n      0x00\n        /* \"#utility.yul\":4271:4285   */\n      mstore\n        /* \"#utility.yul\":4315:4319   */\n      0x20\n        /* \"#utility.yul\":4312:4313   */\n      0x00\n        /* \"#utility.yul\":4302:4320   */\n      keccak256\n        /* \"#utility.yul\":4294:4320   */\n      swap1\n      pop\n        /* \"#utility.yul\":4186:4327   */\n      swap2\n      swap1\n      pop\n      jump\t// out\n        /* \"#utility.yul\":4333:4426   */\n    tag_33:\n        /* \"#utility.yul\":4370:4376   */\n      0x00\n        /* \"#utility.yul\":4417:4419   */\n      0x20\n        /* \"#utility.yul\":4412:4414   */\n      0x1f\n        /* \"#utility.yul\":4405:4410   */\n      dup4\n        /* \"#utility.yul\":4401:4415   */\n      add\n        /* \"#utility.yul\":4397:4420   */\n      div\n        /* \"#utility.yul\":4387:4420   */\n      swap1\n      pop\n        /* \"#utility.yul\":4333:4426   */\n      swap2\n      swap1\n      pop\n      jump\t// out\n        /* \"#utility.yul\":4432:4539   */\n    tag_34:\n        /* \"#utility.yul\":4476:4484   */\n      0x00\n        /* \"#utility.yul\":4526:4531   */\n      dup3\n        /* \"#utility.yul\":4520:4524   */\n      dup3\n        /* \"#utility.yul\":4516:4532   */\n      shl\n        /* \"#utility.yul\":4495:4532   */\n      swap1\n      pop\n        /* \"#utility.yul\":4432:4539   */\n      swap3\n      swap2\n      pop\n      pop\n      jump\t// out\n        /* \"#utility.yul\":4545:4938   */\n    tag_35:\n        /* \"#utility.yul\":4614:4620   */\n      0x00\n        /* \"#utility.yul\":4664:4665   */\n      0x08\n        /* \"#utility.yul\":4652:4662   */\n      dup4\n        /* \"#utility.yul\":4648:4666   */\n      mul\n        /* \"#utility.yul\":4687:4784   */\n      tag_100\n        /* \"#utility.yul\":4717:4783   */\n      0xffffffffffffffffffffffffffffffffffffffffffffffffffffffffffffffff\n        /* \"#utility.yul\":4706:4715   */\n      dup3\n        /* \"#utility.yul\":4687:4784   */\n      tag_34\n      jump\t// in\n    tag_100:\n        /* \"#utility.yul\":4805:4844   */\n      tag_101\n        /* \"#utility.yul\":4835:4843   */\n      dup7\n        /* \"#utility.yul\":4824:4833   */\n      dup4\n        /* \"#utility.yul\":4805:4844   */\n      tag_34\n      jump\t// in\n    tag_101:\n        /* \"#utility.yul\":4793:4844   */\n      swap6\n      pop\n        /* \"#utility.yul\":4877:4881   */\n      dup1\n        /* \"#utility.yul\":4873:4882   */\n      not\n        /* \"#utility.yul\":4866:4871   */\n      dup5\n        /* \"#utility.yul\":4862:4883   */\n      and\n        /* \"#utility.yul\":4853:4883   */\n      swap4\n      pop\n        /* \"#utility.yul\":4926:4930   */\n      dup1\n        /* \"#utility.yul\":4916:4924   */\n      dup7\n        /* \"#utility.yul\":4912:4931   */\n      and\n        /* \"#utility.yul\":4905:4910   */\n      dup5\n        /* \"#utility.yul\":4902:4932   */\n      or\n        /* \"#utility.yul\":4892:4932   */\n      swap3\n      pop\n        /* \"#utility.yul\":4621:4938   */\n      pop\n      pop\n        /* \"#utility.yul\":4545:4938   */\n      swap4\n      swap3\n      pop\n      pop\n      pop\n      jump\t// out\n        /* \"#utility.yul\":4944:5004   */\n    tag_36:\n        /* \"#utility.yul\":4972:4975   */\n      0x00\n        /* \"#utility.yul\":4993:4998   */\n      dup2\n        /* \"#utility.yul\":4986:4998   */\n      swap1\n      pop\n        /* \"#utility.yul\":4944:5004   */\n      swap2\n      swap1\n      pop\n      jump\t// out\n        /* \"#utility.yul\":5010:5152   */\n    tag_37:\n        /* \"#utility.yul\":5060:5069   */\n      0x00\n        /* \"#utility.yul\":5093:5146   */\n      tag_104\n        /* \"#utility.yul\":5111:5145   */\n      tag_105\n        /* \"#utility.yul\":5120:5144   */\n      tag_106\n        /* \"#utility.yul\":5138:5143   */\n      dup5\n        /* \"#utility.yul\":5120:5144   */\n      tag_16\n      jump\t// in\n    tag_106:\n        /* \"#utility.yul\":5111:5145   */\n      tag_36\n      jump\t// in\n    tag_105:\n        /* \"#utility.yul\":5093:5146   */\n      tag_16\n      jump\t// in\n    tag_104:\n        /* \"#utility.yul\":5080:5146   */\n      swap1\n      pop\n        /* \"#utility.yul\":5010:5152   */\n      swap2\n      swap1\n      pop\n      jump\t// out\n        /* \"#utility.yul\":5158:5233   */\n    tag_38:\n        /* \"#utility.yul\":5201:5204   */\n      0x00\n        /* \"#utility.yul\":5222:5227   */\n      dup2\n        /* \"#utility.yul\":5215:5227   */\n      swap1\n      pop\n        /* \"#utility.yul\":5158:5233   */\n      swap2\n      swap1\n      pop\n      jump\t// out\n        /* \"#utility.yul\":5239:5508   */\n    tag_39:\n        /* \"#utility.yul\":5349:5388   */\n      tag_109\n        /* \"#utility.yul\":5380:5387   */\n      dup4\n        /* \"#utility.yul\":5349:5388   */\n      tag_37\n      jump\t// in\n    tag_109:\n        /* \"#utility.yul\":5410:5501   */\n      tag_110\n        /* \"#utility.yul\":5459:5500   */\n      tag_111\n        /* \"#utility.yul\":5483:5499   */\n      dup3\n        /* \"#utility.yul\":5459:5500   */\n      tag_38\n      jump\t// in\n    tag_111:\n        /* \"#utility.yul\":5451:5457   */\n      dup5\n        /* \"#utility.yul\":5444:5448   */\n      dup5\n        /* \"#utility.yul\":5438:5449   */\n      sload\n        /* \"#utility.yul\":5410:5501   */\n      tag_35\n      jump\t// in\n    tag_110:\n        /* \"#utility.yul\":5404:5408   */\n      dup3\n        /* \"#utility.yul\":5397:5502   */\n      sstore\n        /* \"#utility.yul\":5315:5508   */\n      pop\n        /* \"#utility.yul\":5239:5508   */\n      pop\n      pop\n      pop\n      jump\t// out\n        /* \"#utility.yul\":5514:5587   */\n    tag_40:\n        /* \"#utility.yul\":5559:5562   */\n      0x00\n        /* \"#utility.yul\":5514:5587   */\n      swap1\n      jump\t// out\n        /* \"#utility.yul\":5593:5782   */\n    tag_41:\n        /* \"#utility.yul\":5670:5702   */\n      tag_114\n      tag_40\n      jump\t// in\n    tag_114:\n        /* \"#utility.yul\":5711:5776   */\n      tag_115\n        /* \"#utility.yul\":5769:5775   */\n      dup2\n        /* \"#utility.yul\":5761:5767   */\n      dup5\n        /* \"#utility.yul\":5755:5759   */\n      dup5\n        /* \"#utility.yul\":5711:5776   */\n      tag_39\n      jump\t// in\n    tag_115:\n        /* \"#utility.yul\":5646:5782   */\n      pop\n        /* \"#utility.yul\":5593:5782   */\n      pop\n      pop\n      jump\t// out\n        /* \"#utility.yul\":5788:5974   */\n    tag_42:\n        /* \"#utility.yul\":5848:5968   */\n    tag_117:\n        /* \"#utility.yul\":5865:5868   */\n      dup2\n        /* \"#utility.yul\":5858:5863   */\n      dup2\n        /* \"#utility.yul\":5855:5869   */\n      lt\n        /* \"#utility.yul\":5848:5968   */\n      iszero\n      tag_119\n      jumpi\n        /* \"#utility.yul\":5919:5958   */\n      tag_120\n        /* \"#utility.yul\":5956:5957   */\n      0x00\n        /* \"#utility.yul\":5949:5954   */\n      dup3\n        /* \"#utility.yul\":5919:5958   */\n      tag_41\n      jump\t// in\n    tag_120:\n        /* \"#utility.yul\":5892:5893   */\n      0x01\n        /* \"#utility.yul\":5885:5890   */\n      dup2\n        /* \"#utility.yul\":5881:5894   */\n      add\n        /* \"#utility.yul\":5872:5894   */\n      swap1\n      pop\n        /* \"#utility.yul\":5848:5968   */\n      jump(tag_117)\n    tag_119:\n        /* \"#utility.yul\":5788:5974   */\n      pop\n      pop\n      jump\t// out\n        /* \"#utility.yul\":5980:6523   */\n    tag_43:\n        /* \"#utility.yul\":6081:6083   */\n      0x1f\n        /* \"#utility.yul\":6076:6079   */\n      dup3\n        /* \"#utility.yul\":6073:6084   */\n      gt\n        /* \"#utility.yul\":6070:6516   */\n      iszero\n      tag_122\n      jumpi\n        /* \"#utility.yul\":6115:6153   */\n      tag_123\n        /* \"#utility.yul\":6147:6152   */\n      dup2\n        /* \"#utility.yul\":6115:6153   */\n      tag_32\n      jump\t// in\n    tag_123:\n        /* \"#utility.yul\":6199:6228   */\n      tag_124\n        /* \"#utility.yul\":6217:6227   */\n      dup5\n        /* \"#utility.yul\":6199:6228   */\n      tag_33\n      jump\t// in\n    tag_124:\n        /* \"#utility.yul\":6189:6197   */\n      dup2\n        /* \"#utility.yul\":6185:6229   */\n      add\n        /* \"#utility.yul\":6382:6384   */\n      0x20\n        /* \"#utility.yul\":6370:6380   */\n      dup6\n        /* \"#utility.yul\":6367:6385   */\n      lt\n        /* \"#utility.yul\":6364:6413   */\n      iszero\n      tag_125\n      jumpi\n        /* \"#utility.yul\":6403:6411   */\n      dup2\n        /* \"#utility.yul\":6388:6411   */\n      swap1\n      pop\n        /* \"#utility.yul\":6364:6413   */\n    tag_125:\n        /* \"#utility.yul\":6426:6506   */\n      tag_126\n        /* \"#utility.yul\":6482:6504   */\n      tag_127\n        /* \"#utility.yul\":6500:6503   */\n      dup6\n        /* \"#utility.yul\":6482:6504   */\n      tag_33\n      jump\t// in\n    tag_127:\n        /* \"#utility.yul\":6472:6480   */\n      dup4\n        /* \"#utility.yul\":6468:6505   */\n      add\n        /* \"#utility.yul\":6455:6466   */\n      dup3\n        /* \"#utility.yul\":6426:6506   */\n      tag_42\n      jump\t// in\n    tag_126:\n        /* \"#utility.yul\":6085:6516   */\n      pop\n      pop\n        /* \"#utility.yul\":6070:6516   */\n    tag_122:\n        /* \"#utility.yul\":5980:6523   */\n      pop\n      pop\n      pop\n      jump\t// out\n        /* \"#utility.yul\":6529:6646   */\n    tag_44:\n        /* \"#utility.yul\":6583:6591   */\n      0x00\n        /* \"#utility.yul\":6633:6638   */\n      dup3\n        /* \"#utility.yul\":6627:6631   */\n      dup3\n        /* \"#utility.yul\":6623:6639   */\n      shr\n        /* \"#utility.yul\":6602:6639   */\n      swap1\n      pop\n        /* \"#utility.yul\":6529:6646   */\n      swap3\n      swap2\n      pop\n      pop\n      jump\t// out\n        /* \"#utility.yul\":6652:6821   */\n    tag_45:\n        /* \"#utility.yul\":6696:6702   */\n      0x00\n        /* \"#utility.yul\":6729:6780   */\n      tag_130\n        /* \"#utility.yul\":6777:6778   */\n      0x00\n        /* \"#utility.yul\":6773:6779   */\n      not\n        /* \"#utility.yul\":6765:6770   */\n      dup5\n        /* \"#utility.yul\":6762:6763   */\n      0x08\n        /* \"#utility.yul\":6758:6771   */\n      mul\n        /* \"#utility.yul\":6729:6780   */\n      tag_44\n      jump\t// in\n    tag_130:\n        /* \"#utility.yul\":6725:6781   */\n      not\n        /* \"#utility.yul\":6810:6814   */\n      dup1\n        /* \"#utility.yul\":6804:6808   */\n      dup4\n        /* \"#utility.yul\":6800:6815   */\n      and\n        /* \"#utility.yul\":6790:6815   */\n      swap2\n      pop\n        /* \"#utility.yul\":6703:6821   */\n      pop\n        /* \"#utility.yul\":6652:6821   */\n      swap3\n      swap2\n      pop\n      pop\n      jump\t// out\n        /* \"#utility.yul\":6826:7121   */\n    tag_46:\n        /* \"#utility.yul\":6902:6906   */\n      0x00\n        /* \"#utility.yul\":7048:7077   */\n      tag_132\n        /* \"#utility.yul\":7073:7076   */\n      dup4\n        /* \"#utility.yul\":7067:7071   */\n      dup4\n        /* \"#utility.yul\":7048:7077   */\n      tag_45\n      jump\t// in\n    tag_132:\n        /* \"#utility.yul\":7040:7077   */\n      swap2\n      pop\n        /* \"#utility.yul\":7110:7113   */\n      dup3\n        /* \"#utility.yul\":7107:7108   */\n      0x02\n        /* \"#utility.yul\":7103:7114   */\n      mul\n        /* \"#utility.yul\":7097:7101   */\n      dup3\n        /* \"#utility.yul\":7094:7115   */\n      or\n        /* \"#utility.yul\":7086:7115   */\n      swap1\n      pop\n        /* \"#utility.yul\":6826:7121   */\n      swap3\n      swap2\n      pop\n      pop\n      jump\t// out\n        /* \"#utility.yul\":7126:8521   */\n    tag_10:\n        /* \"#utility.yul\":7243:7280   */\n      tag_134\n        /* \"#utility.yul\":7276:7279   */\n      dup3\n        /* \"#utility.yul\":7243:7280   */\n      tag_29\n      jump\t// in\n    tag_134:\n        /* \"#utility.yul\":7345:7363   */\n      0xffffffffffffffff\n        /* \"#utility.yul\":7337:7343   */\n      dup2\n        /* \"#utility.yul\":7334:7364   */\n      gt\n        /* \"#utility.yul\":7331:7387   */\n      iszero\n      tag_135\n      jumpi\n        /* \"#utility.yul\":7367:7385   */\n      tag_136\n      tag_22\n      jump\t// in\n    tag_136:\n        /* \"#utility.yul\":7331:7387   */\n    tag_135:\n        /* \"#utility.yul\":7411:7449   */\n      tag_137\n        /* \"#utility.yul\":7443:7447   */\n      dup3\n        /* \"#utility.yul\":7437:7448   */\n      sload\n        /* \"#utility.yul\":7411:7449   */\n      tag_31\n      jump\t// in\n    tag_137:\n        /* \"#utility.yul\":7496:7563   */\n      tag_138\n        /* \"#utility.yul\":7556:7562   */\n      dup3\n        /* \"#utility.yul\":7548:7554   */\n      dup3\n        /* \"#utility.yul\":7542:7546   */\n      dup6\n        /* \"#utility.yul\":7496:7563   */\n      tag_43\n      jump\t// in\n    tag_138:\n        /* \"#utility.yul\":7590:7591   */\n      0x00\n        /* \"#utility.yul\":7614:7618   */\n      0x20\n        /* \"#utility.yul\":7601:7618   */\n      swap1\n      pop\n        /* \"#utility.yul\":7646:7648   */\n      0x1f\n        /* \"#utility.yul\":7638:7644   */\n      dup4\n        /* \"#utility.yul\":7635:7649   */\n      gt\n        /* \"#utility.yul\":7663:7664   */\n      0x01\n        /* \"#utility.yul\":7658:8276   */\n      dup2\n      eq\n      tag_140\n      jumpi\n        /* \"#utility.yul\":8320:8321   */\n      0x00\n        /* \"#utility.yul\":8337:8343   */\n      dup5\n        /* \"#utility.yul\":8334:8411   */\n      iszero\n      tag_141\n      jumpi\n        /* \"#utility.yul\":8386:8395   */\n      dup3\n        /* \"#utility.yul\":8381:8384   */\n      dup8\n        /* \"#utility.yul\":8377:8396   */\n      add\n        /* \"#utility.yul\":8371:8397   */\n      mload\n        /* \"#utility.yul\":8362:8397   */\n      swap1\n      pop\n        /* \"#utility.yul\":8334:8411   */\n    tag_141:\n        /* \"#utility.yul\":8437:8504   */\n      tag_142\n        /* \"#utility.yul\":8497:8503   */\n      dup6\n        /* \"#utility.yul\":8490:8495   */\n      dup3\n        /* \"#utility.yul\":8437:8504   */\n      tag_46\n      jump\t// in\n    tag_142:\n        /* \"#utility.yul\":8431:8435   */\n      dup7\n        /* \"#utility.yul\":8424:8505   */\n      sstore\n        /* \"#utility.yul\":8293:8515   */\n      pop\n        /* \"#utility.yul\":7628:8515   */\n      jump(tag_139)\n        /* \"#utility.yul\":7658:8276   */\n    tag_140:\n        /* \"#utility.yul\":7710:7714   */\n      0x1f\n        /* \"#utility.yul\":7706:7715   */\n      not\n        /* \"#utility.yul\":7698:7704   */\n      dup5\n        /* \"#utility.yul\":7694:7716   */\n      and\n        /* \"#utility.yul\":7744:7781   */\n      tag_143\n        /* \"#utility.yul\":7776:7780   */\n      dup7\n        /* \"#utility.yul\":7744:7781   */\n      tag_32\n      jump\t// in\n    tag_143:\n        /* \"#utility.yul\":7803:7804   */\n      0x00\n        /* \"#utility.yul\":7817:8025   */\n    tag_144:\n        /* \"#utility.yul\":7831:7838   */\n      dup3\n        /* \"#utility.yul\":7828:7829   */\n      dup2\n        /* \"#utility.yul\":7825:7839   */\n      lt\n        /* \"#utility.yul\":7817:8025   */\n      iszero\n      tag_146\n      jumpi\n        /* \"#utility.yul\":7910:7919   */\n      dup5\n        /* \"#utility.yul\":7905:7908   */\n      dup10\n        /* \"#utility.yul\":7901:7920   */\n      add\n        /* \"#utility.yul\":7895:7921   */\n      mload\n        /* \"#utility.yul\":7887:7893   */\n      dup3\n        /* \"#utility.yul\":7880:7922   */\n      sstore\n        /* \"#utility.yul\":7961:7962   */\n      0x01\n        /* \"#utility.yul\":7953:7959   */\n      dup3\n        /* \"#utility.yul\":7949:7963   */\n      add\n        /* \"#utility.yul\":7939:7963   */\n      swap2\n      pop\n        /* \"#utility.yul\":8008:8010   */\n      0x20\n        /* \"#utility.yul\":7997:8006   */\n      dup6\n        /* \"#utility.yul\":7993:8011   */\n      add\n        /* \"#utility.yul\":7980:8011   */\n      swap5\n      pop\n        /* \"#utility.yul\":7854:7858   */\n      0x20\n        /* \"#utility.yul\":7851:7852   */\n      dup2\n        /* \"#utility.yul\":7847:7859   */\n      add\n        /* \"#utility.yul\":7842:7859   */\n      swap1\n      pop\n        /* \"#utility.yul\":7817:8025   */\n      jump(tag_144)\n    tag_146:\n        /* \"#utility.yul\":8053:8059   */\n      dup7\n        /* \"#utility.yul\":8044:8051   */\n      dup4\n        /* \"#utility.yul\":8041:8060   */\n      lt\n        /* \"#utility.yul\":8038:8217   */\n      iszero\n      tag_147\n      jumpi\n        /* \"#utility.yul\":8111:8120   */\n      dup5\n        /* \"#utility.yul\":8106:8109   */\n      dup10\n        /* \"#utility.yul\":8102:8121   */\n      add\n        /* \"#utility.yul\":8096:8122   */\n      mload\n        /* \"#utility.yul\":8154:8202   */\n      tag_148\n        /* \"#utility.yul\":8196:8200   */\n      0x1f\n        /* \"#utility.yul\":8188:8194   */\n      dup10\n        /* \"#utility.yul\":8184:8201   */\n      and\n        /* \"#utility.yul\":8173:8182   */\n      dup3\n        /* \"#utility.yul\":8154:8202   */\n      tag_45\n      jump\t// in\n    tag_148:\n        /* \"#utility.yul\":8146:8152   */\n      dup4\n        /* \"#utility.yul\":8139:8203   */\n      sstore\n        /* \"#utility.yul\":8061:8217   */\n      pop\n        /* \"#utility.yul\":8038:8217   */\n    tag_147:\n        /* \"#utility.yul\":8263:8264   */\n      0x01\n        /* \"#utility.yul\":8259:8260   */\n      0x02\n        /* \"#utility.yul\":8251:8257   */\n      dup9\n        /* \"#utility.yul\":8247:8261   */\n      mul\n        /* \"#utility.yul\":8243:8265   */\n      add\n        /* \"#utility.yul\":8237:8241   */\n      dup9\n        /* \"#utility.yul\":8230:8266   */\n      sstore\n        /* \"#utility.yul\":7665:8276   */\n      pop\n      pop\n      pop\n        /* \"#utility.yul\":7628:8515   */\n    tag_139:\n      pop\n        /* \"#utility.yul\":7218:8521   */\n      pop\n      pop\n      pop\n        /* \"#utility.yul\":7126:8521   */\n      pop\n      pop\n      jump\t// out\n\n    auxdata: 0xa26469706673582212203dcf511828631bf74c2c63f0f678a18b05d8f66b63cc225ab2665c05ef387bb964736f6c63430008130033\n}\n",
				"bytecode": {
					"linkReferences": {},
					"object": "608060405234801561001057600080fd5b506105de806100206000396000f3fe608060405234801561001057600080fd5b506004361061002b5760003560e01c80638b7268e814610030575b600080fd5b61004a60048036038101906100459190610263565b61004c565b005b8060016000848152602001908152602001600020908161006c91906104d6565b50600060405180604001604052808481526020018381525090806001815401808255809150506001900390600052602060002090600202016000909190919091506000820151816000015560208201518160010190816100cc91906104d6565b5050505050565b6000604051905090565b600080fd5b600080fd5b6000819050919050565b6100fa816100e7565b811461010557600080fd5b50565b600081359050610117816100f1565b92915050565b600080fd5b600080fd5b6000601f19601f8301169050919050565b7f4e487b7100000000000000000000000000000000000000000000000000000000600052604160045260246000fd5b61017082610127565b810181811067ffffffffffffffff8211171561018f5761018e610138565b5b80604052505050565b60006101a26100d3565b90506101ae8282610167565b919050565b600067ffffffffffffffff8211156101ce576101cd610138565b5b6101d782610127565b9050602081019050919050565b82818337600083830152505050565b6000610206610201846101b3565b610198565b90508281526020810184848401111561022257610221610122565b5b61022d8482856101e4565b509392505050565b600082601f83011261024a5761024961011d565b5b813561025a8482602086016101f3565b91505092915050565b6000806040838503121561027a576102796100dd565b5b600061028885828601610108565b925050602083013567ffffffffffffffff8111156102a9576102a86100e2565b5b6102b585828601610235565b9150509250929050565b600081519050919050565b7f4e487b7100000000000000000000000000000000000000000000000000000000600052602260045260246000fd5b6000600282049050600182168061031157607f821691505b602082108103610324576103236102ca565b5b50919050565b60008190508160005260206000209050919050565b60006020601f8301049050919050565b600082821b905092915050565b60006008830261038c7fffffffffffffffffffffffffffffffffffffffffffffffffffffffffffffffff8261034f565b610396868361034f565b95508019841693508086168417925050509392505050565b6000819050919050565b60006103d36103ce6103c9846100e7565b6103ae565b6100e7565b9050919050565b6000819050919050565b6103ed836103b8565b6104016103f9826103da565b84845461035c565b825550505050565b600090565b610416610409565b6104218184846103e4565b505050565b5b818110156104455761043a60008261040e565b600181019050610427565b5050565b601f82111561048a5761045b8161032a565b6104648461033f565b81016020851015610473578190505b61048761047f8561033f565b830182610426565b50505b505050565b600082821c905092915050565b60006104ad6000198460080261048f565b1980831691505092915050565b60006104c6838361049c565b9150826002028217905092915050565b6104df826102bf565b67ffffffffffffffff8111156104f8576104f7610138565b5b61050282546102f9565b61050d828285610449565b600060209050601f831160018114610540576000841561052e578287015190505b61053885826104ba565b8655506105a0565b601f19841661054e8661032a565b60005b8281101561057657848901518255600182019150602085019450602081019050610551565b86831015610593578489015161058f601f89168261049c565b8355505b6001600288020188555050505b50505050505056fea26469706673582212203dcf511828631bf74c2c63f0f678a18b05d8f66b63cc225ab2665c05ef387bb964736f6c63430008130033",
					"opcodes": "PUSH1 0x80 PUSH1 0x40 MSTORE CALLVALUE DUP1 ISZERO PUSH2 0x10 JUMPI PUSH1 0x0 DUP1 REVERT JUMPDEST POP PUSH2 0x5DE DUP1 PUSH2 0x20 PUSH1 0x0 CODECOPY PUSH1 0x0 RETURN INVALID PUSH1 0x80 PUSH1 0x40 MSTORE CALLVALUE DUP1 ISZERO PUSH2 0x10 JUMPI PUSH1 0x0 DUP1 REVERT JUMPDEST POP PUSH1 0x4 CALLDATASIZE LT PUSH2 0x2B JUMPI PUSH1 0x0 CALLDATALOAD PUSH1 0xE0 SHR DUP1 PUSH4 0x8B7268E8 EQ PUSH2 0x30 JUMPI JUMPDEST PUSH1 0x0 DUP1 REVERT JUMPDEST PUSH2 0x4A PUSH1 0x4 DUP1 CALLDATASIZE SUB DUP2 ADD SWAP1 PUSH2 0x45 SWAP2 SWAP1 PUSH2 0x263 JUMP JUMPDEST PUSH2 0x4C JUMP JUMPDEST STOP JUMPDEST DUP1 PUSH1 0x1 PUSH1 0x0 DUP5 DUP2 MSTORE PUSH1 0x20 ADD SWAP1 DUP2 MSTORE PUSH1 0x20 ADD PUSH1 0x0 KECCAK256 SWAP1 DUP2 PUSH2 0x6C SWAP2 SWAP1 PUSH2 0x4D6 JUMP JUMPDEST POP PUSH1 0x0 PUSH1 0x40 MLOAD DUP1 PUSH1 0x40 ADD PUSH1 0x40 MSTORE DUP1 DUP5 DUP2 MSTORE PUSH1 0x20 ADD DUP4 DUP2 MSTORE POP SWAP1 DUP1 PUSH1 0x1 DUP2 SLOAD ADD DUP1 DUP3 SSTORE DUP1 SWAP2 POP POP PUSH1 0x1 SWAP1 SUB SWAP1 PUSH1 0x0 MSTORE PUSH1 0x20 PUSH1 0x0 KECCAK256 SWAP1 PUSH1 0x2 MUL ADD PUSH1 0x0 SWAP1 SWAP2 SWAP1 SWAP2 SWAP1 SWAP2 POP PUSH1 0x0 DUP3 ADD MLOAD DUP2 PUSH1 0x0 ADD SSTORE PUSH1 0x20 DUP3 ADD MLOAD DUP2 PUSH1 0x1 ADD SWAP1 DUP2 PUSH2 0xCC SWAP2 SWAP1 PUSH2 0x4D6 JUMP JUMPDEST POP POP POP POP POP JUMP JUMPDEST PUSH1 0x0 PUSH1 0x40 MLOAD SWAP1 POP SWAP1 JUMP JUMPDEST PUSH1 0x0 DUP1 REVERT JUMPDEST PUSH1 0x0 DUP1 REVERT JUMPDEST PUSH1 0x0 DUP2 SWAP1 POP SWAP2 SWAP1 POP JUMP JUMPDEST PUSH2 0xFA DUP2 PUSH2 0xE7 JUMP JUMPDEST DUP2 EQ PUSH2 0x105 JUMPI PUSH1 0x0 DUP1 REVERT JUMPDEST POP JUMP JUMPDEST PUSH1 0x0 DUP2 CALLDATALOAD SWAP1 POP PUSH2 0x117 DUP2 PUSH2 0xF1 JUMP JUMPDEST SWAP3 SWAP2 POP POP JUMP JUMPDEST PUSH1 0x0 DUP1 REVERT JUMPDEST PUSH1 0x0 DUP1 REVERT JUMPDEST PUSH1 0x0 PUSH1 0x1F NOT PUSH1 0x1F DUP4 ADD AND SWAP1 POP SWAP2 SWAP1 POP JUMP JUMPDEST PUSH32 0x4E487B7100000000000000000000000000000000000000000000000000000000 PUSH1 0x0 MSTORE PUSH1 0x41 PUSH1 0x4 MSTORE PUSH1 0x24 PUSH1 0x0 REVERT JUMPDEST PUSH2 0x170 DUP3 PUSH2 0x127 JUMP JUMPDEST DUP2 ADD DUP2 DUP2 LT PUSH8 0xFFFFFFFFFFFFFFFF DUP3 GT OR ISZERO PUSH2 0x18F JUMPI PUSH2 0x18E PUSH2 0x138 JUMP JUMPDEST JUMPDEST DUP1 PUSH1 0x40 MSTORE POP POP POP JUMP JUMPDEST PUSH1 0x0 PUSH2 0x1A2 PUSH2 0xD3 JUMP JUMPDEST SWAP1 POP PUSH2 0x1AE DUP3 DUP3 PUSH2 0x167 JUMP JUMPDEST SWAP2 SWAP1 POP JUMP JUMPDEST PUSH1 0x0 PUSH8 0xFFFFFFFFFFFFFFFF DUP3 GT ISZERO PUSH2 0x1CE JUMPI PUSH2 0x1CD PUSH2 0x138 JUMP JUMPDEST JUMPDEST PUSH2 0x1D7 DUP3 PUSH2 0x127 JUMP JUMPDEST SWAP1 POP PUSH1 0x20 DUP2 ADD SWAP1 POP SWAP2 SWAP1 POP JUMP JUMPDEST DUP3 DUP2 DUP4 CALLDATACOPY PUSH1 0x0 DUP4 DUP4 ADD MSTORE POP POP POP JUMP JUMPDEST PUSH1 0x0 PUSH2 0x206 PUSH2 0x201 DUP5 PUSH2 0x1B3 JUMP JUMPDEST PUSH2 0x198 JUMP JUMPDEST SWAP1 POP DUP3 DUP2 MSTORE PUSH1 0x20 DUP2 ADD DUP5 DUP5 DUP5 ADD GT ISZERO PUSH2 0x222 JUMPI PUSH2 0x221 PUSH2 0x122 JUMP JUMPDEST JUMPDEST PUSH2 0x22D DUP5 DUP3 DUP6 PUSH2 0x1E4 JUMP JUMPDEST POP SWAP4 SWAP3 POP POP POP JUMP JUMPDEST PUSH1 0x0 DUP3 PUSH1 0x1F DUP4 ADD SLT PUSH2 0x24A JUMPI PUSH2 0x249 PUSH2 0x11D JUMP JUMPDEST JUMPDEST DUP2 CALLDATALOAD PUSH2 0x25A DUP5 DUP3 PUSH1 0x20 DUP7 ADD PUSH2 0x1F3 JUMP JUMPDEST SWAP2 POP POP SWAP3 SWAP2 POP POP JUMP JUMPDEST PUSH1 0x0 DUP1 PUSH1 0x40 DUP4 DUP6 SUB SLT ISZERO PUSH2 0x27A JUMPI PUSH2 0x279 PUSH2 0xDD JUMP JUMPDEST JUMPDEST PUSH1 0x0 PUSH2 0x288 DUP6 DUP3 DUP7 ADD PUSH2 0x108 JUMP JUMPDEST SWAP3 POP POP PUSH1 0x20 DUP4 ADD CALLDATALOAD PUSH8 0xFFFFFFFFFFFFFFFF DUP2 GT ISZERO PUSH2 0x2A9 JUMPI PUSH2 0x2A8 PUSH2 0xE2 JUMP JUMPDEST JUMPDEST PUSH2 0x2B5 DUP6 DUP3 DUP7 ADD PUSH2 0x235 JUMP JUMPDEST SWAP2 POP POP SWAP3 POP SWAP3 SWAP1 POP JUMP JUMPDEST PUSH1 0x0 DUP2 MLOAD SWAP1 POP SWAP2 SWAP1 POP JUMP JUMPDEST PUSH32 0x4E487B7100000000000000000000000000000000000000000000000000000000 PUSH1 0x0 MSTORE PUSH1 0x22 PUSH1 0x4 MSTORE PUSH1 0x24 PUSH1 0x0 REVERT JUMPDEST PUSH1 0x0 PUSH1 0x2 DUP3 DIV SWAP1 POP PUSH1 0x1 DUP3 AND DUP1 PUSH2 0x311 JUMPI PUSH1 0x7F DUP3 AND SWAP2 POP JUMPDEST PUSH1 0x20 DUP3 LT DUP2 SUB PUSH2 0x324 JUMPI PUSH2 0x323 PUSH2 0x2CA JUMP JUMPDEST JUMPDEST POP SWAP2 SWAP1 POP JUMP JUMPDEST PUSH1 0x0 DUP2 SWAP1 POP DUP2 PUSH1 0x0 MSTORE PUSH1 0x20 PUSH1 0x0 KECCAK256 SWAP1 POP SWAP2 SWAP1 POP JUMP JUMPDEST PUSH1 0x0 PUSH1 0x20 PUSH1 0x1F DUP4 ADD DIV SWAP1 POP SWAP2 SWAP1 POP JUMP JUMPDEST PUSH1 0x0 DUP3 DUP3 SHL SWAP1 POP SWAP3 SWAP2 POP POP JUMP JUMPDEST PUSH1 0x0 PUSH1 0x8 DUP4 MUL PUSH2 0x38C PUSH32 0xFFFFFFFFFFFFFFFFFFFFFFFFFFFFFFFFFFFFFFFFFFFFFFFFFFFFFFFFFFFFFFFF DUP3 PUSH2 0x34F JUMP JUMPDEST PUSH2 0x396 DUP7 DUP4 PUSH2 0x34F JUMP JUMPDEST SWAP6 POP DUP1 NOT DUP5 AND SWAP4 POP DUP1 DUP7 AND DUP5 OR SWAP3 POP POP POP SWAP4 SWAP3 POP POP POP JUMP JUMPDEST PUSH1 0x0 DUP2 SWAP1 POP SWAP2 SWAP1 POP JUMP JUMPDEST PUSH1 0x0 PUSH2 0x3D3 PUSH2 0x3CE PUSH2 0x3C9 DUP5 PUSH2 0xE7 JUMP JUMPDEST PUSH2 0x3AE JUMP JUMPDEST PUSH2 0xE7 JUMP JUMPDEST SWAP1 POP SWAP2 SWAP1 POP JUMP JUMPDEST PUSH1 0x0 DUP2 SWAP1 POP SWAP2 SWAP1 POP JUMP JUMPDEST PUSH2 0x3ED DUP4 PUSH2 0x3B8 JUMP JUMPDEST PUSH2 0x401 PUSH2 0x3F9 DUP3 PUSH2 0x3DA JUMP JUMPDEST DUP5 DUP5 SLOAD PUSH2 0x35C JUMP JUMPDEST DUP3 SSTORE POP POP POP POP JUMP JUMPDEST PUSH1 0x0 SWAP1 JUMP JUMPDEST PUSH2 0x416 PUSH2 0x409 JUMP JUMPDEST PUSH2 0x421 DUP2 DUP5 DUP5 PUSH2 0x3E4 JUMP JUMPDEST POP POP POP JUMP JUMPDEST JUMPDEST DUP2 DUP2 LT ISZERO PUSH2 0x445 JUMPI PUSH2 0x43A PUSH1 0x0 DUP3 PUSH2 0x40E JUMP JUMPDEST PUSH1 0x1 DUP2 ADD SWAP1 POP PUSH2 0x427 JUMP JUMPDEST POP POP JUMP JUMPDEST PUSH1 0x1F DUP3 GT ISZERO PUSH2 0x48A JUMPI PUSH2 0x45B DUP2 PUSH2 0x32A JUMP JUMPDEST PUSH2 0x464 DUP5 PUSH2 0x33F JUMP JUMPDEST DUP2 ADD PUSH1 0x20 DUP6 LT ISZERO PUSH2 0x473 JUMPI DUP2 SWAP1 POP JUMPDEST PUSH2 0x487 PUSH2 0x47F DUP6 PUSH2 0x33F JUMP JUMPDEST DUP4 ADD DUP3 PUSH2 0x426 JUMP JUMPDEST POP POP JUMPDEST POP POP POP JUMP JUMPDEST PUSH1 0x0 DUP3 DUP3 SHR SWAP1 POP SWAP3 SWAP2 POP POP JUMP JUMPDEST PUSH1 0x0 PUSH2 0x4AD PUSH1 0x0 NOT DUP5 PUSH1 0x8 MUL PUSH2 0x48F JUMP JUMPDEST NOT DUP1 DUP4 AND SWAP2 POP POP SWAP3 SWAP2 POP POP JUMP JUMPDEST PUSH1 0x0 PUSH2 0x4C6 DUP4 DUP4 PUSH2 0x49C JUMP JUMPDEST SWAP2 POP DUP3 PUSH1 0x2 MUL DUP3 OR SWAP1 POP SWAP3 SWAP2 POP POP JUMP JUMPDEST PUSH2 0x4DF DUP3 PUSH2 0x2BF JUMP JUMPDEST PUSH8 0xFFFFFFFFFFFFFFFF DUP2 GT ISZERO PUSH2 0x4F8 JUMPI PUSH2 0x4F7 PUSH2 0x138 JUMP JUMPDEST JUMPDEST PUSH2 0x502 DUP3 SLOAD PUSH2 0x2F9 JUMP JUMPDEST PUSH2 0x50D DUP3 DUP3 DUP6 PUSH2 0x449 JUMP JUMPDEST PUSH1 0x0 PUSH1 0x20 SWAP1 POP PUSH1 0x1F DUP4 GT PUSH1 0x1 DUP2 EQ PUSH2 0x540 JUMPI PUSH1 0x0 DUP5 ISZERO PUSH2 0x52E JUMPI DUP3 DUP8 ADD MLOAD SWAP1 POP JUMPDEST PUSH2 0x538 DUP6 DUP3 PUSH2 0x4BA JUMP JUMPDEST DUP7 SSTORE POP PUSH2 0x5A0 JUMP JUMPDEST PUSH1 0x1F NOT DUP5 AND PUSH2 0x54E DUP7 PUSH2 0x32A JUMP JUMPDEST PUSH1 0x0 JUMPDEST DUP3 DUP2 LT ISZERO PUSH2 0x576 JUMPI DUP5 DUP10 ADD MLOAD DUP3 SSTORE PUSH1 0x1 DUP3 ADD SWAP2 POP PUSH1 0x20 DUP6 ADD SWAP5 POP PUSH1 0x20 DUP2 ADD SWAP1 POP PUSH2 0x551 JUMP JUMPDEST DUP7 DUP4 LT ISZERO PUSH2 0x593 JUMPI DUP5 DUP10 ADD MLOAD PUSH2 0x58F PUSH1 0x1F DUP10 AND DUP3 PUSH2 0x49C JUMP JUMPDEST DUP4 SSTORE POP JUMPDEST PUSH1 0x1 PUSH1 0x2 DUP9 MUL ADD DUP9 SSTORE POP POP POP JUMPDEST POP POP POP POP POP POP JUMP INVALID LOG2 PUSH5 0x6970667358 0x22 SLT KECCAK256 RETURNDATASIZE 0xCF MLOAD XOR 0x28 PUSH4 0x1BF74C2C PUSH4 0xF0F678A1 DUP12 SDIV 0xD8 0xF6 PUSH12 0x63CC225AB2665C05EF387BB9 PUSH5 0x736F6C6343 STOP ADDMOD SGT STOP CALLER "
				},
				"gasEstimates": {
					"creation": {
						"codeDepositCost": "300400",
						"executionCost": "337",
						"totalCost": "300737"
					},
					"external": {
						"CreateEvent(uint256,string)": "infinite"
					}
				},
				"methodIdentifiers": {
					"CreateEvent(uint256,string)": "8b7268e8"
				}
			},
			"storageLayout": {
				"storage": [
					{
						"astId": 10,
						"contract": "Simple.sol:Simple",
						"label": "MyEventsData",
						"offset": 0,
						"slot": "0",
						"type": "t_array(t_struct(EventsData)6_storage)dyn_storage"
					},
					{
						"astId": 14,
						"contract": "Simple.sol:Simple",
						"label": "MyMap",
						"offset": 0,
						"slot": "1",
						"type": "t_mapping(t_uint256,t_string_storage)"
					}
				],
				"types": {
					"t_array(t_struct(EventsData)6_storage)dyn_storage": {
						"base": "t_struct(EventsData)6_storage",
						"encoding": "dynamic_array",
						"label": "struct Simple.EventsData[]",
						"numberOfBytes": "32"
					},
					"t_mapping(t_uint256,t_string_storage)": {
						"encoding": "mapping",
						"key": "t_uint256",
						"label": "mapping(uint256 => string)",
						"numberOfBytes": "32",
						"value": "t_string_storage"
					},
					"t_string_storage": {
						"encoding": "bytes",
						"label": "string",
						"numberOfBytes": "32"
					},
					"t_struct(EventsData)6_storage": {
						"encoding": "inplace",
						"label": "struct Simple.EventsData",
						"members": [
							{
								"astId": 3,
								"contract": "Simple.sol:Simple",
								"label": "Timestamp",
								"offset": 0,
								"slot": "0",
								"type": "t_uint256"
							},
							{
								"astId": 5,
								"contract": "Simple.sol:Simple",
								"label": "Event",
								"offset": 0,
								"slot": "1",
								"type": "t_string_storage"
							}
						],
						"numberOfBytes": "64"
					},
					"t_uint256": {
						"encoding": "inplace",
						"label": "uint256",
						"numberOfBytes": "32"
					}
				}
			},
			"userdoc": {
				"kind": "user",
				"methods": {},
				"version": 1
			}
		}
	}
}