{
	"data": {
		"bytecode": {
			"linkReferences": {},
			"object": "608060405234801561001057600080fd5b506107aa806100206000396000f3fe608060405234801561001057600080fd5b50600436106100365760003560e01c806398c461ca1461003b578063e9b2ee2b1461006c575b600080fd5b610055600480360381019061005091906101da565b610088565b6040516100639291906102a6565b60405180910390f35b6100866004803603810190610081919061040b565b61013b565b005b60008161016d811061009957600080fd5b600202016000915090508060000180546100b290610496565b80601f01602080910402602001604051908101604052809291908181526020018280546100de90610496565b801561012b5780601f106101005761010080835404028352916020019161012b565b820191906000526020600020905b81548152906001019060200180831161010e57829003601f168201915b5050505050908060010154905082565b60405180604001604052808381526020018281525060008261016d8110610165576101646104c7565b5b60020201600082015181600001908161017e91906106a2565b50602082015181600101559050505050565b6000604051905090565b600080fd5b600080fd5b6000819050919050565b6101b7816101a4565b81146101c257600080fd5b50565b6000813590506101d4816101ae565b92915050565b6000602082840312156101f0576101ef61019a565b5b60006101fe848285016101c5565b91505092915050565b600081519050919050565b600082825260208201905092915050565b60005b83811015610241578082015181840152602081019050610226565b60008484015250505050565b6000601f19601f8301169050919050565b600061026982610207565b6102738185610212565b9350610283818560208601610223565b61028c8161024d565b840191505092915050565b6102a0816101a4565b82525050565b600060408201905081810360008301526102c0818561025e565b90506102cf6020830184610297565b9392505050565b600080fd5b600080fd5b7f4e487b7100000000000000000000000000000000000000000000000000000000600052604160045260246000fd5b6103188261024d565b810181811067ffffffffffffffff82111715610337576103366102e0565b5b80604052505050565b600061034a610190565b9050610356828261030f565b919050565b600067ffffffffffffffff821115610376576103756102e0565b5b61037f8261024d565b9050602081019050919050565b82818337600083830152505050565b60006103ae6103a98461035b565b610340565b9050828152602081018484840111156103ca576103c96102db565b5b6103d584828561038c565b509392505050565b600082601f8301126103f2576103f16102d6565b5b813561040284826020860161039b565b91505092915050565b600080604083850312156104225761042161019a565b5b600083013567ffffffffffffffff8111156104405761043f61019f565b5b61044c858286016103dd565b925050602061045d858286016101c5565b9150509250929050565b7f4e487b7100000000000000000000000000000000000000000000000000000000600052602260045260246000fd5b600060028204905060018216806104ae57607f821691505b6020821081036104c1576104c0610467565b5b50919050565b7f4e487b7100000000000000000000000000000000000000000000000000000000600052603260045260246000fd5b60008190508160005260206000209050919050565b60006020601f8301049050919050565b600082821b905092915050565b6000600883026105587fffffffffffffffffffffffffffffffffffffffffffffffffffffffffffffffff8261051b565b610562868361051b565b95508019841693508086168417925050509392505050565b6000819050919050565b600061059f61059a610595846101a4565b61057a565b6101a4565b9050919050565b6000819050919050565b6105b983610584565b6105cd6105c5826105a6565b848454610528565b825550505050565b600090565b6105e26105d5565b6105ed8184846105b0565b505050565b5b81811015610611576106066000826105da565b6001810190506105f3565b5050565b601f82111561065657610627816104f6565b6106308461050b565b8101602085101561063f578190505b61065361064b8561050b565b8301826105f2565b50505b505050565b600082821c905092915050565b60006106796000198460080261065b565b1980831691505092915050565b60006106928383610668565b9150826002028217905092915050565b6106ab82610207565b67ffffffffffffffff8111156106c4576106c36102e0565b5b6106ce8254610496565b6106d9828285610615565b600060209050601f83116001811461070c57600084156106fa578287015190505b6107048582610686565b86555061076c565b601f19841661071a866104f6565b60005b828110156107425784890151825560018201915060208501945060208101905061071d565b8683101561075f578489015161075b601f891682610668565b8355505b6001600288020188555050505b50505050505056fea26469706673582212204f3ecebd806282aa0e99eb3150c716e5ec24efe654da19e5b169b6808b78cebe64736f6c63430008130033",
			"opcodes": "PUSH1 0x80 PUSH1 0x40 MSTORE CALLVALUE DUP1 ISZERO PUSH2 0x10 JUMPI PUSH1 0x0 DUP1 REVERT JUMPDEST POP PUSH2 0x7AA DUP1 PUSH2 0x20 PUSH1 0x0 CODECOPY PUSH1 0x0 RETURN INVALID PUSH1 0x80 PUSH1 0x40 MSTORE CALLVALUE DUP1 ISZERO PUSH2 0x10 JUMPI PUSH1 0x0 DUP1 REVERT JUMPDEST POP PUSH1 0x4 CALLDATASIZE LT PUSH2 0x36 JUMPI PUSH1 0x0 CALLDATALOAD PUSH1 0xE0 SHR DUP1 PUSH4 0x98C461CA EQ PUSH2 0x3B JUMPI DUP1 PUSH4 0xE9B2EE2B EQ PUSH2 0x6C JUMPI JUMPDEST PUSH1 0x0 DUP1 REVERT JUMPDEST PUSH2 0x55 PUSH1 0x4 DUP1 CALLDATASIZE SUB DUP2 ADD SWAP1 PUSH2 0x50 SWAP2 SWAP1 PUSH2 0x1DA JUMP JUMPDEST PUSH2 0x88 JUMP JUMPDEST PUSH1 0x40 MLOAD PUSH2 0x63 SWAP3 SWAP2 SWAP1 PUSH2 0x2A6 JUMP JUMPDEST PUSH1 0x40 MLOAD DUP1 SWAP2 SUB SWAP1 RETURN JUMPDEST PUSH2 0x86 PUSH1 0x4 DUP1 CALLDATASIZE SUB DUP2 ADD SWAP1 PUSH2 0x81 SWAP2 SWAP1 PUSH2 0x40B JUMP JUMPDEST PUSH2 0x13B JUMP JUMPDEST STOP JUMPDEST PUSH1 0x0 DUP2 PUSH2 0x16D DUP2 LT PUSH2 0x99 JUMPI PUSH1 0x0 DUP1 REVERT JUMPDEST PUSH1 0x2 MUL ADD PUSH1 0x0 SWAP2 POP SWAP1 POP DUP1 PUSH1 0x0 ADD DUP1 SLOAD PUSH2 0xB2 SWAP1 PUSH2 0x496 JUMP JUMPDEST DUP1 PUSH1 0x1F ADD PUSH1 0x20 DUP1 SWAP2 DIV MUL PUSH1 0x20 ADD PUSH1 0x40 MLOAD SWAP1 DUP2 ADD PUSH1 0x40 MSTORE DUP1 SWAP3 SWAP2 SWAP1 DUP2 DUP2 MSTORE PUSH1 0x20 ADD DUP3 DUP1 SLOAD PUSH2 0xDE SWAP1 PUSH2 0x496 JUMP JUMPDEST DUP1 ISZERO PUSH2 0x12B JUMPI DUP1 PUSH1 0x1F LT PUSH2 0x100 JUMPI PUSH2 0x100 DUP1 DUP4 SLOAD DIV MUL DUP4 MSTORE SWAP2 PUSH1 0x20 ADD SWAP2 PUSH2 0x12B JUMP JUMPDEST DUP3 ADD SWAP2 SWAP1 PUSH1 0x0 MSTORE PUSH1 0x20 PUSH1 0x0 KECCAK256 SWAP1 JUMPDEST DUP2 SLOAD DUP2 MSTORE SWAP1 PUSH1 0x1 ADD SWAP1 PUSH1 0x20 ADD DUP1 DUP4 GT PUSH2 0x10E JUMPI DUP3 SWAP1 SUB PUSH1 0x1F AND DUP3 ADD SWAP2 JUMPDEST POP POP POP POP POP SWAP1 DUP1 PUSH1 0x1 ADD SLOAD SWAP1 POP DUP3 JUMP JUMPDEST PUSH1 0x40 MLOAD DUP1 PUSH1 0x40 ADD PUSH1 0x40 MSTORE DUP1 DUP4 DUP2 MSTORE PUSH1 0x20 ADD DUP3 DUP2 MSTORE POP PUSH1 0x0 DUP3 PUSH2 0x16D DUP2 LT PUSH2 0x165 JUMPI PUSH2 0x164 PUSH2 0x4C7 JUMP JUMPDEST JUMPDEST PUSH1 0x2 MUL ADD PUSH1 0x0 DUP3 ADD MLOAD DUP2 PUSH1 0x0 ADD SWAP1 DUP2 PUSH2 0x17E SWAP2 SWAP1 PUSH2 0x6A2 JUMP JUMPDEST POP PUSH1 0x20 DUP3 ADD MLOAD DUP2 PUSH1 0x1 ADD SSTORE SWAP1 POP POP POP POP JUMP JUMPDEST PUSH1 0x0 PUSH1 0x40 MLOAD SWAP1 POP SWAP1 JUMP JUMPDEST PUSH1 0x0 DUP1 REVERT JUMPDEST PUSH1 0x0 DUP1 REVERT JUMPDEST PUSH1 0x0 DUP2 SWAP1 POP SWAP2 SWAP1 POP JUMP JUMPDEST PUSH2 0x1B7 DUP2 PUSH2 0x1A4 JUMP JUMPDEST DUP2 EQ PUSH2 0x1C2 JUMPI PUSH1 0x0 DUP1 REVERT JUMPDEST POP JUMP JUMPDEST PUSH1 0x0 DUP2 CALLDATALOAD SWAP1 POP PUSH2 0x1D4 DUP2 PUSH2 0x1AE JUMP JUMPDEST SWAP3 SWAP2 POP POP JUMP JUMPDEST PUSH1 0x0 PUSH1 0x20 DUP3 DUP5 SUB SLT ISZERO PUSH2 0x1F0 JUMPI PUSH2 0x1EF PUSH2 0x19A JUMP JUMPDEST JUMPDEST PUSH1 0x0 PUSH2 0x1FE DUP5 DUP3 DUP6 ADD PUSH2 0x1C5 JUMP JUMPDEST SWAP2 POP POP SWAP3 SWAP2 POP POP JUMP JUMPDEST PUSH1 0x0 DUP2 MLOAD SWAP1 POP SWAP2 SWAP1 POP JUMP JUMPDEST PUSH1 0x0 DUP3 DUP3 MSTORE PUSH1 0x20 DUP3 ADD SWAP1 POP SWAP3 SWAP2 POP POP JUMP JUMPDEST PUSH1 0x0 JUMPDEST DUP4 DUP2 LT ISZERO PUSH2 0x241 JUMPI DUP1 DUP3 ADD MLOAD DUP2 DUP5 ADD MSTORE PUSH1 0x20 DUP2 ADD SWAP1 POP PUSH2 0x226 JUMP JUMPDEST PUSH1 0x0 DUP5 DUP5 ADD MSTORE POP POP POP POP JUMP JUMPDEST PUSH1 0x0 PUSH1 0x1F NOT PUSH1 0x1F DUP4 ADD AND SWAP1 POP SWAP2 SWAP1 POP JUMP JUMPDEST PUSH1 0x0 PUSH2 0x269 DUP3 PUSH2 0x207 JUMP JUMPDEST PUSH2 0x273 DUP2 DUP6 PUSH2 0x212 JUMP JUMPDEST SWAP4 POP PUSH2 0x283 DUP2 DUP6 PUSH1 0x20 DUP7 ADD PUSH2 0x223 JUMP JUMPDEST PUSH2 0x28C DUP2 PUSH2 0x24D JUMP JUMPDEST DUP5 ADD SWAP2 POP POP SWAP3 SWAP2 POP POP JUMP JUMPDEST PUSH2 0x2A0 DUP2 PUSH2 0x1A4 JUMP JUMPDEST DUP3 MSTORE POP POP JUMP JUMPDEST PUSH1 0x0 PUSH1 0x40 DUP3 ADD SWAP1 POP DUP2 DUP2 SUB PUSH1 0x0 DUP4 ADD MSTORE PUSH2 0x2C0 DUP2 DUP6 PUSH2 0x25E JUMP JUMPDEST SWAP1 POP PUSH2 0x2CF PUSH1 0x20 DUP4 ADD DUP5 PUSH2 0x297 JUMP JUMPDEST SWAP4 SWAP3 POP POP POP JUMP JUMPDEST PUSH1 0x0 DUP1 REVERT JUMPDEST PUSH1 0x0 DUP1 REVERT JUMPDEST PUSH32 0x4E487B7100000000000000000000000000000000000000000000000000000000 PUSH1 0x0 MSTORE PUSH1 0x41 PUSH1 0x4 MSTORE PUSH1 0x24 PUSH1 0x0 REVERT JUMPDEST PUSH2 0x318 DUP3 PUSH2 0x24D JUMP JUMPDEST DUP2 ADD DUP2 DUP2 LT PUSH8 0xFFFFFFFFFFFFFFFF DUP3 GT OR ISZERO PUSH2 0x337 JUMPI PUSH2 0x336 PUSH2 0x2E0 JUMP JUMPDEST JUMPDEST DUP1 PUSH1 0x40 MSTORE POP POP POP JUMP JUMPDEST PUSH1 0x0 PUSH2 0x34A PUSH2 0x190 JUMP JUMPDEST SWAP1 POP PUSH2 0x356 DUP3 DUP3 PUSH2 0x30F JUMP JUMPDEST SWAP2 SWAP1 POP JUMP JUMPDEST PUSH1 0x0 PUSH8 0xFFFFFFFFFFFFFFFF DUP3 GT ISZERO PUSH2 0x376 JUMPI PUSH2 0x375 PUSH2 0x2E0 JUMP JUMPDEST JUMPDEST PUSH2 0x37F DUP3 PUSH2 0x24D JUMP JUMPDEST SWAP1 POP PUSH1 0x20 DUP2 ADD SWAP1 POP SWAP2 SWAP1 POP JUMP JUMPDEST DUP3 DUP2 DUP4 CALLDATACOPY PUSH1 0x0 DUP4 DUP4 ADD MSTORE POP POP POP JUMP JUMPDEST PUSH1 0x0 PUSH2 0x3AE PUSH2 0x3A9 DUP5 PUSH2 0x35B JUMP JUMPDEST PUSH2 0x340 JUMP JUMPDEST SWAP1 POP DUP3 DUP2 MSTORE PUSH1 0x20 DUP2 ADD DUP5 DUP5 DUP5 ADD GT ISZERO PUSH2 0x3CA JUMPI PUSH2 0x3C9 PUSH2 0x2DB JUMP JUMPDEST JUMPDEST PUSH2 0x3D5 DUP5 DUP3 DUP6 PUSH2 0x38C JUMP JUMPDEST POP SWAP4 SWAP3 POP POP POP JUMP JUMPDEST PUSH1 0x0 DUP3 PUSH1 0x1F DUP4 ADD SLT PUSH2 0x3F2 JUMPI PUSH2 0x3F1 PUSH2 0x2D6 JUMP JUMPDEST JUMPDEST DUP2 CALLDATALOAD PUSH2 0x402 DUP5 DUP3 PUSH1 0x20 DUP7 ADD PUSH2 0x39B JUMP JUMPDEST SWAP2 POP POP SWAP3 SWAP2 POP POP JUMP JUMPDEST PUSH1 0x0 DUP1 PUSH1 0x40 DUP4 DUP6 SUB SLT ISZERO PUSH2 0x422 JUMPI PUSH2 0x421 PUSH2 0x19A JUMP JUMPDEST JUMPDEST PUSH1 0x0 DUP4 ADD CALLDATALOAD PUSH8 0xFFFFFFFFFFFFFFFF DUP2 GT ISZERO PUSH2 0x440 JUMPI PUSH2 0x43F PUSH2 0x19F JUMP JUMPDEST JUMPDEST PUSH2 0x44C DUP6 DUP3 DUP7 ADD PUSH2 0x3DD JUMP JUMPDEST SWAP3 POP POP PUSH1 0x20 PUSH2 0x45D DUP6 DUP3 DUP7 ADD PUSH2 0x1C5 JUMP JUMPDEST SWAP2 POP POP SWAP3 POP SWAP3 SWAP1 POP JUMP JUMPDEST PUSH32 0x4E487B7100000000000000000000000000000000000000000000000000000000 PUSH1 0x0 MSTORE PUSH1 0x22 PUSH1 0x4 MSTORE PUSH1 0x24 PUSH1 0x0 REVERT JUMPDEST PUSH1 0x0 PUSH1 0x2 DUP3 DIV SWAP1 POP PUSH1 0x1 DUP3 AND DUP1 PUSH2 0x4AE JUMPI PUSH1 0x7F DUP3 AND SWAP2 POP JUMPDEST PUSH1 0x20 DUP3 LT DUP2 SUB PUSH2 0x4C1 JUMPI PUSH2 0x4C0 PUSH2 0x467 JUMP JUMPDEST JUMPDEST POP SWAP2 SWAP1 POP JUMP JUMPDEST PUSH32 0x4E487B7100000000000000000000000000000000000000000000000000000000 PUSH1 0x0 MSTORE PUSH1 0x32 PUSH1 0x4 MSTORE PUSH1 0x24 PUSH1 0x0 REVERT JUMPDEST PUSH1 0x0 DUP2 SWAP1 POP DUP2 PUSH1 0x0 MSTORE PUSH1 0x20 PUSH1 0x0 KECCAK256 SWAP1 POP SWAP2 SWAP1 POP JUMP JUMPDEST PUSH1 0x0 PUSH1 0x20 PUSH1 0x1F DUP4 ADD DIV SWAP1 POP SWAP2 SWAP1 POP JUMP JUMPDEST PUSH1 0x0 DUP3 DUP3 SHL SWAP1 POP SWAP3 SWAP2 POP POP JUMP JUMPDEST PUSH1 0x0 PUSH1 0x8 DUP4 MUL PUSH2 0x558 PUSH32 0xFFFFFFFFFFFFFFFFFFFFFFFFFFFFFFFFFFFFFFFFFFFFFFFFFFFFFFFFFFFFFFFF DUP3 PUSH2 0x51B JUMP JUMPDEST PUSH2 0x562 DUP7 DUP4 PUSH2 0x51B JUMP JUMPDEST SWAP6 POP DUP1 NOT DUP5 AND SWAP4 POP DUP1 DUP7 AND DUP5 OR SWAP3 POP POP POP SWAP4 SWAP3 POP POP POP JUMP JUMPDEST PUSH1 0x0 DUP2 SWAP1 POP SWAP2 SWAP1 POP JUMP JUMPDEST PUSH1 0x0 PUSH2 0x59F PUSH2 0x59A PUSH2 0x595 DUP5 PUSH2 0x1A4 JUMP JUMPDEST PUSH2 0x57A JUMP JUMPDEST PUSH2 0x1A4 JUMP JUMPDEST SWAP1 POP SWAP2 SWAP1 POP JUMP JUMPDEST PUSH1 0x0 DUP2 SWAP1 POP SWAP2 SWAP1 POP JUMP JUMPDEST PUSH2 0x5B9 DUP4 PUSH2 0x584 JUMP JUMPDEST PUSH2 0x5CD PUSH2 0x5C5 DUP3 PUSH2 0x5A6 JUMP JUMPDEST DUP5 DUP5 SLOAD PUSH2 0x528 JUMP JUMPDEST DUP3 SSTORE POP POP POP POP JUMP JUMPDEST PUSH1 0x0 SWAP1 JUMP JUMPDEST PUSH2 0x5E2 PUSH2 0x5D5 JUMP JUMPDEST PUSH2 0x5ED DUP2 DUP5 DUP5 PUSH2 0x5B0 JUMP JUMPDEST POP POP POP JUMP JUMPDEST JUMPDEST DUP2 DUP2 LT ISZERO PUSH2 0x611 JUMPI PUSH2 0x606 PUSH1 0x0 DUP3 PUSH2 0x5DA JUMP JUMPDEST PUSH1 0x1 DUP2 ADD SWAP1 POP PUSH2 0x5F3 JUMP JUMPDEST POP POP JUMP JUMPDEST PUSH1 0x1F DUP3 GT ISZERO PUSH2 0x656 JUMPI PUSH2 0x627 DUP2 PUSH2 0x4F6 JUMP JUMPDEST PUSH2 0x630 DUP5 PUSH2 0x50B JUMP JUMPDEST DUP2 ADD PUSH1 0x20 DUP6 LT ISZERO PUSH2 0x63F JUMPI DUP2 SWAP1 POP JUMPDEST PUSH2 0x653 PUSH2 0x64B DUP6 PUSH2 0x50B JUMP JUMPDEST DUP4 ADD DUP3 PUSH2 0x5F2 JUMP JUMPDEST POP POP JUMPDEST POP POP POP JUMP JUMPDEST PUSH1 0x0 DUP3 DUP3 SHR SWAP1 POP SWAP3 SWAP2 POP POP JUMP JUMPDEST PUSH1 0x0 PUSH2 0x679 PUSH1 0x0 NOT DUP5 PUSH1 0x8 MUL PUSH2 0x65B JUMP JUMPDEST NOT DUP1 DUP4 AND SWAP2 POP POP SWAP3 SWAP2 POP POP JUMP JUMPDEST PUSH1 0x0 PUSH2 0x692 DUP4 DUP4 PUSH2 0x668 JUMP JUMPDEST SWAP2 POP DUP3 PUSH1 0x2 MUL DUP3 OR SWAP1 POP SWAP3 SWAP2 POP POP JUMP JUMPDEST PUSH2 0x6AB DUP3 PUSH2 0x207 JUMP JUMPDEST PUSH8 0xFFFFFFFFFFFFFFFF DUP2 GT ISZERO PUSH2 0x6C4 JUMPI PUSH2 0x6C3 PUSH2 0x2E0 JUMP JUMPDEST JUMPDEST PUSH2 0x6CE DUP3 SLOAD PUSH2 0x496 JUMP JUMPDEST PUSH2 0x6D9 DUP3 DUP3 DUP6 PUSH2 0x615 JUMP JUMPDEST PUSH1 0x0 PUSH1 0x20 SWAP1 POP PUSH1 0x1F DUP4 GT PUSH1 0x1 DUP2 EQ PUSH2 0x70C JUMPI PUSH1 0x0 DUP5 ISZERO PUSH2 0x6FA JUMPI DUP3 DUP8 ADD MLOAD SWAP1 POP JUMPDEST PUSH2 0x704 DUP6 DUP3 PUSH2 0x686 JUMP JUMPDEST DUP7 SSTORE POP PUSH2 0x76C JUMP JUMPDEST PUSH1 0x1F NOT DUP5 AND PUSH2 0x71A DUP7 PUSH2 0x4F6 JUMP JUMPDEST PUSH1 0x0 JUMPDEST DUP3 DUP2 LT ISZERO PUSH2 0x742 JUMPI DUP5 DUP10 ADD MLOAD DUP3 SSTORE PUSH1 0x1 DUP3 ADD SWAP2 POP PUSH1 0x20 DUP6 ADD SWAP5 POP PUSH1 0x20 DUP2 ADD SWAP1 POP PUSH2 0x71D JUMP JUMPDEST DUP7 DUP4 LT ISZERO PUSH2 0x75F JUMPI DUP5 DUP10 ADD MLOAD PUSH2 0x75B PUSH1 0x1F DUP10 AND DUP3 PUSH2 0x668 JUMP JUMPDEST DUP4 SSTORE POP JUMPDEST PUSH1 0x1 PUSH1 0x2 DUP9 MUL ADD DUP9 SSTORE POP POP POP JUMPDEST POP POP POP POP POP POP JUMP INVALID LOG2 PUSH5 0x6970667358 0x22 SLT KECCAK256 0x4F RETURNDATACOPY 0xCE 0xBD DUP1 PUSH3 0x82AA0E SWAP10 0xEB BALANCE POP 0xC7 AND 0xE5 0xEC 0x24 0xEF 0xE6 SLOAD 0xDA NOT 0xE5 0xB1 PUSH10 0xB6808B78CEBE64736F6C PUSH4 0x43000813 STOP CALLER "
		},
		"gasEstimates": {
			"creation": {
				"codeDepositCost": "392400",
				"executionCost": "430",
				"totalCost": "392830"
			},
			"external": {
				"daily_archive(string,uint256)": "infinite",
				"daily_archive_array(uint256)": "infinite"
			}
		},
		"methodIdentifiers": {
			"daily_archive(string,uint256)": "e9b2ee2b",
			"daily_archive_array(uint256)": "98c461ca"
		}
	},
	"abi": [
		{
			"inputs": [
				{
					"internalType": "string",
					"name": "_archive",
					"type": "string"
				},
				{
					"internalType": "uint256",
					"name": "_day",
					"type": "uint256"
				}
			],
			"name": "daily_archive",
			"outputs": [],
			"stateMutability": "nonpayable",
			"type": "function"
		},
		{
			"inputs": [
				{
					"internalType": "uint256",
					"name": "",
					"type": "uint256"
				}
			],
			"name": "daily_archive_array",
			"outputs": [
				{
					"internalType": "string",
					"name": "archive",
					"type": "string"
				},
				{
					"internalType": "uint256",
					"name": "day",
					"type": "uint256"
				}
			],
			"stateMutability": "view",
			"type": "function"
		}
	]
}